{
  "_format": "hh-sol-artifact-1",
  "contractName": "SimpleNftContract",
  "sourceName": "contracts/3-SimpleNftContract.sol",
  "abi": [
    {
      "inputs": [],
      "stateMutability": "nonpayable",
      "type": "constructor"
    },
    {
      "anonymous": false,
      "inputs": [
        {
          "indexed": true,
          "internalType": "address",
          "name": "owner",
          "type": "address"
        },
        {
          "indexed": true,
          "internalType": "address",
          "name": "approved",
          "type": "address"
        },
        {
          "indexed": true,
          "internalType": "uint256",
          "name": "tokenId",
          "type": "uint256"
        }
      ],
      "name": "Approval",
      "type": "event"
    },
    {
      "anonymous": false,
      "inputs": [
        {
          "indexed": true,
          "internalType": "address",
          "name": "owner",
          "type": "address"
        },
        {
          "indexed": true,
          "internalType": "address",
          "name": "operator",
          "type": "address"
        },
        {
          "indexed": false,
          "internalType": "bool",
          "name": "approved",
          "type": "bool"
        }
      ],
      "name": "ApprovalForAll",
      "type": "event"
    },
    {
      "anonymous": false,
      "inputs": [
        {
          "indexed": true,
          "internalType": "address",
          "name": "previousOwner",
          "type": "address"
        },
        {
          "indexed": true,
          "internalType": "address",
          "name": "newOwner",
          "type": "address"
        }
      ],
      "name": "OwnershipTransferred",
      "type": "event"
    },
    {
      "anonymous": false,
      "inputs": [
        {
          "indexed": true,
          "internalType": "address",
          "name": "from",
          "type": "address"
        },
        {
          "indexed": true,
          "internalType": "address",
          "name": "to",
          "type": "address"
        },
        {
          "indexed": true,
          "internalType": "uint256",
          "name": "tokenId",
          "type": "uint256"
        }
      ],
      "name": "Transfer",
      "type": "event"
    },
    {
      "inputs": [],
      "name": "_tokenIds",
      "outputs": [
        {
          "internalType": "uint256",
          "name": "_value",
          "type": "uint256"
        }
      ],
      "stateMutability": "view",
      "type": "function"
    },
    {
      "inputs": [
        {
          "internalType": "address",
          "name": "to",
          "type": "address"
        },
        {
          "internalType": "uint256",
          "name": "tokenId",
          "type": "uint256"
        }
      ],
      "name": "approve",
      "outputs": [],
      "stateMutability": "nonpayable",
      "type": "function"
    },
    {
      "inputs": [
        {
          "internalType": "address",
          "name": "owner",
          "type": "address"
        }
      ],
      "name": "balanceOf",
      "outputs": [
        {
          "internalType": "uint256",
          "name": "",
          "type": "uint256"
        }
      ],
      "stateMutability": "view",
      "type": "function"
    },
    {
      "inputs": [
        {
          "internalType": "uint256",
          "name": "tokenId",
          "type": "uint256"
        }
      ],
      "name": "getApproved",
      "outputs": [
        {
          "internalType": "address",
          "name": "",
          "type": "address"
        }
      ],
      "stateMutability": "view",
      "type": "function"
    },
    {
      "inputs": [
        {
          "internalType": "address",
          "name": "owner",
          "type": "address"
        },
        {
          "internalType": "address",
          "name": "operator",
          "type": "address"
        }
      ],
      "name": "isApprovedForAll",
      "outputs": [
        {
          "internalType": "bool",
          "name": "",
          "type": "bool"
        }
      ],
      "stateMutability": "view",
      "type": "function"
    },
    {
      "inputs": [
        {
          "internalType": "address",
          "name": "to",
          "type": "address"
        },
        {
          "internalType": "string",
          "name": "tokenURI",
          "type": "string"
        }
      ],
      "name": "mintItem",
      "outputs": [
        {
          "internalType": "uint256",
          "name": "",
          "type": "uint256"
        }
      ],
      "stateMutability": "nonpayable",
      "type": "function"
    },
    {
      "inputs": [],
      "name": "name",
      "outputs": [
        {
          "internalType": "string",
          "name": "",
          "type": "string"
        }
      ],
      "stateMutability": "view",
      "type": "function"
    },
    {
      "inputs": [],
      "name": "owner",
      "outputs": [
        {
          "internalType": "address",
          "name": "",
          "type": "address"
        }
      ],
      "stateMutability": "view",
      "type": "function"
    },
    {
      "inputs": [
        {
          "internalType": "uint256",
          "name": "tokenId",
          "type": "uint256"
        }
      ],
      "name": "ownerOf",
      "outputs": [
        {
          "internalType": "address",
          "name": "",
          "type": "address"
        }
      ],
      "stateMutability": "view",
      "type": "function"
    },
    {
      "inputs": [],
      "name": "renounceOwnership",
      "outputs": [],
      "stateMutability": "nonpayable",
      "type": "function"
    },
    {
      "inputs": [
        {
          "internalType": "address",
          "name": "from",
          "type": "address"
        },
        {
          "internalType": "address",
          "name": "to",
          "type": "address"
        },
        {
          "internalType": "uint256",
          "name": "tokenId",
          "type": "uint256"
        }
      ],
      "name": "safeTransferFrom",
      "outputs": [],
      "stateMutability": "nonpayable",
      "type": "function"
    },
    {
      "inputs": [
        {
          "internalType": "address",
          "name": "from",
          "type": "address"
        },
        {
          "internalType": "address",
          "name": "to",
          "type": "address"
        },
        {
          "internalType": "uint256",
          "name": "tokenId",
          "type": "uint256"
        },
        {
          "internalType": "bytes",
          "name": "_data",
          "type": "bytes"
        }
      ],
      "name": "safeTransferFrom",
      "outputs": [],
      "stateMutability": "nonpayable",
      "type": "function"
    },
    {
      "inputs": [
        {
          "internalType": "address",
          "name": "operator",
          "type": "address"
        },
        {
          "internalType": "bool",
          "name": "approved",
          "type": "bool"
        }
      ],
      "name": "setApprovalForAll",
      "outputs": [],
      "stateMutability": "nonpayable",
      "type": "function"
    },
    {
      "inputs": [
        {
          "internalType": "bytes4",
          "name": "interfaceId",
          "type": "bytes4"
        }
      ],
      "name": "supportsInterface",
      "outputs": [
        {
          "internalType": "bool",
          "name": "",
          "type": "bool"
        }
      ],
      "stateMutability": "view",
      "type": "function"
    },
    {
      "inputs": [],
      "name": "symbol",
      "outputs": [
        {
          "internalType": "string",
          "name": "",
          "type": "string"
        }
      ],
      "stateMutability": "view",
      "type": "function"
    },
    {
      "inputs": [
        {
          "internalType": "uint256",
          "name": "tokenId",
          "type": "uint256"
        }
      ],
      "name": "tokenURI",
      "outputs": [
        {
          "internalType": "string",
          "name": "",
          "type": "string"
        }
      ],
      "stateMutability": "view",
      "type": "function"
    },
    {
      "inputs": [
        {
          "internalType": "address",
          "name": "from",
          "type": "address"
        },
        {
          "internalType": "address",
          "name": "to",
          "type": "address"
        },
        {
          "internalType": "uint256",
          "name": "tokenId",
          "type": "uint256"
        }
      ],
      "name": "transferFrom",
      "outputs": [],
      "stateMutability": "nonpayable",
      "type": "function"
    },
    {
      "inputs": [
        {
          "internalType": "address",
          "name": "newOwner",
          "type": "address"
        }
      ],
      "name": "transferOwnership",
      "outputs": [],
      "stateMutability": "nonpayable",
      "type": "function"
    }
  ],
  "bytecode": "0x60806040523480156200001157600080fd5b506040518060400160405280600f81526020017f596f7572436f6c6c65637469626c6500000000000000000000000000000000008152506040518060400160405280600381526020017f5943420000000000000000000000000000000000000000000000000000000000815250816000908051906020019062000096929190620001a6565b508060019080519060200190620000af929190620001a6565b505050620000d2620000c6620000d860201b60201c565b620000e060201b60201c565b620002bb565b600033905090565b6000600760009054906101000a900473ffffffffffffffffffffffffffffffffffffffff16905081600760006101000a81548173ffffffffffffffffffffffffffffffffffffffff021916908373ffffffffffffffffffffffffffffffffffffffff1602179055508173ffffffffffffffffffffffffffffffffffffffff168173ffffffffffffffffffffffffffffffffffffffff167f8be0079c531659141344cd1fd0a4f28419497f9722a3daafe3b4186f6b6457e060405160405180910390a35050565b828054620001b49062000256565b90600052602060002090601f016020900481019282620001d8576000855562000224565b82601f10620001f357805160ff191683800117855562000224565b8280016001018555821562000224579182015b828111156200022357825182559160200191906001019062000206565b5b50905062000233919062000237565b5090565b5b808211156200025257600081600090555060010162000238565b5090565b600060028204905060018216806200026f57607f821691505b602082108114156200028657620002856200028c565b5b50919050565b7f4e487b7100000000000000000000000000000000000000000000000000000000600052602260045260246000fd5b612ff280620002cb6000396000f3fe608060405234801561001057600080fd5b50600436106101165760003560e01c8063715018a6116100a2578063aa46a40011610071578063aa46a400146102df578063b88d4fde146102fd578063c87b56dd14610319578063e985e9c514610349578063f2fde38b1461037957610116565b8063715018a61461027d5780638da5cb5b1461028757806395d89b41146102a5578063a22cb465146102c357610116565b8063110bcd45116100e9578063110bcd45146101b557806323b872dd146101e557806342842e0e146102015780636352211e1461021d57806370a082311461024d57610116565b806301ffc9a71461011b57806306fdde031461014b578063081812fc14610169578063095ea7b314610199575b600080fd5b61013560048036038101906101309190611fa1565b610395565b60405161014291906123ed565b60405180910390f35b610153610477565b6040516101609190612408565b60405180910390f35b610183600480360381019061017e9190611ff3565b610509565b6040516101909190612386565b60405180910390f35b6101b360048036038101906101ae9190611f65565b61058e565b005b6101cf60048036038101906101ca9190611f11565b6106a6565b6040516101dc919061266a565b60405180910390f35b6101ff60048036038101906101fa9190611e0b565b61075a565b005b61021b60048036038101906102169190611e0b565b6107ba565b005b61023760048036038101906102329190611ff3565b6107da565b6040516102449190612386565b60405180910390f35b61026760048036038101906102629190611da6565b61088c565b604051610274919061266a565b60405180910390f35b610285610944565b005b61028f6109cc565b60405161029c9190612386565b60405180910390f35b6102ad6109f6565b6040516102ba9190612408565b60405180910390f35b6102dd60048036038101906102d89190611ed5565b610a88565b005b6102e7610a9e565b6040516102f4919061266a565b60405180910390f35b61031760048036038101906103129190611e5a565b610aaa565b005b610333600480360381019061032e9190611ff3565b610b0c565b6040516103409190612408565b60405180910390f35b610363600480360381019061035e9190611dcf565b610c5e565b60405161037091906123ed565b60405180910390f35b610393600480360381019061038e9190611da6565b610cf2565b005b60007f80ac58cd000000000000000000000000000000000000000000000000000000007bffffffffffffffffffffffffffffffffffffffffffffffffffffffff1916827bffffffffffffffffffffffffffffffffffffffffffffffffffffffff1916148061046057507f5b5e139f000000000000000000000000000000000000000000000000000000007bffffffffffffffffffffffffffffffffffffffffffffffffffffffff1916827bffffffffffffffffffffffffffffffffffffffffffffffffffffffff1916145b80610470575061046f82610dea565b5b9050919050565b606060008054610486906128c0565b80601f01602080910402602001604051908101604052809291908181526020018280546104b2906128c0565b80156104ff5780601f106104d4576101008083540402835291602001916104ff565b820191906000526020600020905b8154815290600101906020018083116104e257829003601f168201915b5050505050905090565b600061051482610e54565b610553576040517f08c379a000000000000000000000000000000000000000000000000000000000815260040161054a906125aa565b60405180910390fd5b6004600083815260200190815260200160002060009054906101000a900473ffffffffffffffffffffffffffffffffffffffff169050919050565b6000610599826107da565b90508073ffffffffffffffffffffffffffffffffffffffff168373ffffffffffffffffffffffffffffffffffffffff16141561060a576040517f08c379a00000000000000000000000000000000000000000000000000000000081526004016106019061262a565b60405180910390fd5b8073ffffffffffffffffffffffffffffffffffffffff16610629610ec0565b73ffffffffffffffffffffffffffffffffffffffff161480610658575061065781610652610ec0565b610c5e565b5b610697576040517f08c379a000000000000000000000000000000000000000000000000000000000815260040161068e906124ea565b60405180910390fd5b6106a18383610ec8565b505050565b60006106b0610ec0565b73ffffffffffffffffffffffffffffffffffffffff166106ce6109cc565b73ffffffffffffffffffffffffffffffffffffffff1614610724576040517f08c379a000000000000000000000000000000000000000000000000000000000815260040161071b906125ca565b60405180910390fd5b61072e6008610f81565b600061073a6008610f97565b90506107468482610fa5565b6107508184611173565b8091505092915050565b61076b610765610ec0565b826111e7565b6107aa576040517f08c379a00000000000000000000000000000000000000000000000000000000081526004016107a19061264a565b60405180910390fd5b6107b58383836112c5565b505050565b6107d583838360405180602001604052806000815250610aaa565b505050565b6000806002600084815260200190815260200160002060009054906101000a900473ffffffffffffffffffffffffffffffffffffffff169050600073ffffffffffffffffffffffffffffffffffffffff168173ffffffffffffffffffffffffffffffffffffffff161415610883576040517f08c379a000000000000000000000000000000000000000000000000000000000815260040161087a9061252a565b60405180910390fd5b80915050919050565b60008073ffffffffffffffffffffffffffffffffffffffff168273ffffffffffffffffffffffffffffffffffffffff1614156108fd576040517f08c379a00000000000000000000000000000000000000000000000000000000081526004016108f49061250a565b60405180910390fd5b600360008373ffffffffffffffffffffffffffffffffffffffff1673ffffffffffffffffffffffffffffffffffffffff168152602001908152602001600020549050919050565b61094c610ec0565b73ffffffffffffffffffffffffffffffffffffffff1661096a6109cc565b73ffffffffffffffffffffffffffffffffffffffff16146109c0576040517f08c379a00000000000000000000000000000000000000000000000000000000081526004016109b7906125ca565b60405180910390fd5b6109ca6000611521565b565b6000600760009054906101000a900473ffffffffffffffffffffffffffffffffffffffff16905090565b606060018054610a05906128c0565b80601f0160208091040260200160405190810160405280929190818152602001828054610a31906128c0565b8015610a7e5780601f10610a5357610100808354040283529160200191610a7e565b820191906000526020600020905b815481529060010190602001808311610a6157829003601f168201915b5050505050905090565b610a9a610a93610ec0565b83836115e7565b5050565b60088060000154905081565b610abb610ab5610ec0565b836111e7565b610afa576040517f08c379a0000000000000000000000000000000000000000000000000000000008152600401610af19061264a565b60405180910390fd5b610b0684848484611754565b50505050565b6060610b1782610e54565b610b56576040517f08c379a0000000000000000000000000000000000000000000000000000000008152600401610b4d9061258a565b60405180910390fd5b6000600660008481526020019081526020016000208054610b76906128c0565b80601f0160208091040260200160405190810160405280929190818152602001828054610ba2906128c0565b8015610bef5780601f10610bc457610100808354040283529160200191610bef565b820191906000526020600020905b815481529060010190602001808311610bd257829003601f168201915b505050505090506000610c006117b0565b9050600081511415610c16578192505050610c59565b600082511115610c4b578082604051602001610c33929190612362565b60405160208183030381529060405292505050610c59565b610c54846117c7565b925050505b919050565b6000600560008473ffffffffffffffffffffffffffffffffffffffff1673ffffffffffffffffffffffffffffffffffffffff16815260200190815260200160002060008373ffffffffffffffffffffffffffffffffffffffff1673ffffffffffffffffffffffffffffffffffffffff16815260200190815260200160002060009054906101000a900460ff16905092915050565b610cfa610ec0565b73ffffffffffffffffffffffffffffffffffffffff16610d186109cc565b73ffffffffffffffffffffffffffffffffffffffff1614610d6e576040517f08c379a0000000000000000000000000000000000000000000000000000000008152600401610d65906125ca565b60405180910390fd5b600073ffffffffffffffffffffffffffffffffffffffff168173ffffffffffffffffffffffffffffffffffffffff161415610dde576040517f08c379a0000000000000000000000000000000000000000000000000000000008152600401610dd59061244a565b60405180910390fd5b610de781611521565b50565b60007f01ffc9a7000000000000000000000000000000000000000000000000000000007bffffffffffffffffffffffffffffffffffffffffffffffffffffffff1916827bffffffffffffffffffffffffffffffffffffffffffffffffffffffff1916149050919050565b60008073ffffffffffffffffffffffffffffffffffffffff166002600084815260200190815260200160002060009054906101000a900473ffffffffffffffffffffffffffffffffffffffff1673ffffffffffffffffffffffffffffffffffffffff1614159050919050565b600033905090565b816004600083815260200190815260200160002060006101000a81548173ffffffffffffffffffffffffffffffffffffffff021916908373ffffffffffffffffffffffffffffffffffffffff160217905550808273ffffffffffffffffffffffffffffffffffffffff16610f3b836107da565b73ffffffffffffffffffffffffffffffffffffffff167f8c5be1e5ebec7d5bd14f71427d1e84f3dd0314c0f7b2291e5b200ac8c7c3b92560405160405180910390a45050565b6001816000016000828254019250508190555050565b600081600001549050919050565b600073ffffffffffffffffffffffffffffffffffffffff168273ffffffffffffffffffffffffffffffffffffffff161415611015576040517f08c379a000000000000000000000000000000000000000000000000000000000815260040161100c9061256a565b60405180910390fd5b61101e81610e54565b1561105e576040517f08c379a00000000000000000000000000000000000000000000000000000000081526004016110559061246a565b60405180910390fd5b61106a6000838361186e565b6001600360008473ffffffffffffffffffffffffffffffffffffffff1673ffffffffffffffffffffffffffffffffffffffff16815260200190815260200160002060008282546110ba919061274f565b92505081905550816002600083815260200190815260200160002060006101000a81548173ffffffffffffffffffffffffffffffffffffffff021916908373ffffffffffffffffffffffffffffffffffffffff160217905550808273ffffffffffffffffffffffffffffffffffffffff16600073ffffffffffffffffffffffffffffffffffffffff167fddf252ad1be2c89b69c2b068fc378daa952ba7f163c4a11628f55a4df523b3ef60405160405180910390a45050565b61117c82610e54565b6111bb576040517f08c379a00000000000000000000000000000000000000000000000000000000081526004016111b29061254a565b60405180910390fd5b806006600084815260200190815260200160002090805190602001906111e2929190611bca565b505050565b60006111f282610e54565b611231576040517f08c379a0000000000000000000000000000000000000000000000000000000008152600401611228906124ca565b60405180910390fd5b600061123c836107da565b90508073ffffffffffffffffffffffffffffffffffffffff168473ffffffffffffffffffffffffffffffffffffffff1614806112ab57508373ffffffffffffffffffffffffffffffffffffffff1661129384610509565b73ffffffffffffffffffffffffffffffffffffffff16145b806112bc57506112bb8185610c5e565b5b91505092915050565b8273ffffffffffffffffffffffffffffffffffffffff166112e5826107da565b73ffffffffffffffffffffffffffffffffffffffff161461133b576040517f08c379a0000000000000000000000000000000000000000000000000000000008152600401611332906125ea565b60405180910390fd5b600073ffffffffffffffffffffffffffffffffffffffff168273ffffffffffffffffffffffffffffffffffffffff1614156113ab576040517f08c379a00000000000000000000000000000000000000000000000000000000081526004016113a29061248a565b60405180910390fd5b6113b683838361186e565b6113c1600082610ec8565b6001600360008573ffffffffffffffffffffffffffffffffffffffff1673ffffffffffffffffffffffffffffffffffffffff168152602001908152602001600020600082825461141191906127d6565b925050819055506001600360008473ffffffffffffffffffffffffffffffffffffffff1673ffffffffffffffffffffffffffffffffffffffff1681526020019081526020016000206000828254611468919061274f565b92505081905550816002600083815260200190815260200160002060006101000a81548173ffffffffffffffffffffffffffffffffffffffff021916908373ffffffffffffffffffffffffffffffffffffffff160217905550808273ffffffffffffffffffffffffffffffffffffffff168473ffffffffffffffffffffffffffffffffffffffff167fddf252ad1be2c89b69c2b068fc378daa952ba7f163c4a11628f55a4df523b3ef60405160405180910390a4505050565b6000600760009054906101000a900473ffffffffffffffffffffffffffffffffffffffff16905081600760006101000a81548173ffffffffffffffffffffffffffffffffffffffff021916908373ffffffffffffffffffffffffffffffffffffffff1602179055508173ffffffffffffffffffffffffffffffffffffffff168173ffffffffffffffffffffffffffffffffffffffff167f8be0079c531659141344cd1fd0a4f28419497f9722a3daafe3b4186f6b6457e060405160405180910390a35050565b8173ffffffffffffffffffffffffffffffffffffffff168373ffffffffffffffffffffffffffffffffffffffff161415611656576040517f08c379a000000000000000000000000000000000000000000000000000000000815260040161164d906124aa565b60405180910390fd5b80600560008573ffffffffffffffffffffffffffffffffffffffff1673ffffffffffffffffffffffffffffffffffffffff16815260200190815260200160002060008473ffffffffffffffffffffffffffffffffffffffff1673ffffffffffffffffffffffffffffffffffffffff16815260200190815260200160002060006101000a81548160ff0219169083151502179055508173ffffffffffffffffffffffffffffffffffffffff168373ffffffffffffffffffffffffffffffffffffffff167f17307eab39ab6107e8899845ad3d59bd9653f200f220920489ca2b5937696c318360405161174791906123ed565b60405180910390a3505050565b61175f8484846112c5565b61176b84848484611873565b6117aa576040517f08c379a00000000000000000000000000000000000000000000000000000000081526004016117a19061242a565b60405180910390fd5b50505050565b606060405180602001604052806000815250905090565b60606117d282610e54565b611811576040517f08c379a00000000000000000000000000000000000000000000000000000000081526004016118089061260a565b60405180910390fd5b600061181b6117b0565b9050600081511161183b5760405180602001604052806000815250611866565b8061184584611a0a565b604051602001611856929190612362565b6040516020818303038152906040525b915050919050565b505050565b60006118948473ffffffffffffffffffffffffffffffffffffffff16611bb7565b156119fd578373ffffffffffffffffffffffffffffffffffffffff1663150b7a026118bd610ec0565b8786866040518563ffffffff1660e01b81526004016118df94939291906123a1565b602060405180830381600087803b1580156118f957600080fd5b505af192505050801561192a57506040513d601f19601f820116820180604052508101906119279190611fca565b60015b6119ad573d806000811461195a576040519150601f19603f3d011682016040523d82523d6000602084013e61195f565b606091505b506000815114156119a5576040517f08c379a000000000000000000000000000000000000000000000000000000000815260040161199c9061242a565b60405180910390fd5b805181602001fd5b63150b7a0260e01b7bffffffffffffffffffffffffffffffffffffffffffffffffffffffff1916817bffffffffffffffffffffffffffffffffffffffffffffffffffffffff191614915050611a02565b600190505b949350505050565b60606000821415611a52576040518060400160405280600181526020017f30000000000000000000000000000000000000000000000000000000000000008152509050611bb2565b600082905060005b60008214611a84578080611a6d90612923565b915050600a82611a7d91906127a5565b9150611a5a565b60008167ffffffffffffffff811115611ac6577f4e487b7100000000000000000000000000000000000000000000000000000000600052604160045260246000fd5b6040519080825280601f01601f191660200182016040528015611af85781602001600182028036833780820191505090505b5090505b60008514611bab57600182611b1191906127d6565b9150600a85611b20919061296c565b6030611b2c919061274f565b60f81b818381518110611b68577f4e487b7100000000000000000000000000000000000000000000000000000000600052603260045260246000fd5b60200101907effffffffffffffffffffffffffffffffffffffffffffffffffffffffffffff1916908160001a905350600a85611ba491906127a5565b9450611afc565b8093505050505b919050565b600080823b905060008111915050919050565b828054611bd6906128c0565b90600052602060002090601f016020900481019282611bf85760008555611c3f565b82601f10611c1157805160ff1916838001178555611c3f565b82800160010185558215611c3f579182015b82811115611c3e578251825591602001919060010190611c23565b5b509050611c4c9190611c50565b5090565b5b80821115611c69576000816000905550600101611c51565b5090565b6000611c80611c7b846126aa565b612685565b905082815260208101848484011115611c9857600080fd5b611ca384828561287e565b509392505050565b6000611cbe611cb9846126db565b612685565b905082815260208101848484011115611cd657600080fd5b611ce184828561287e565b509392505050565b600081359050611cf881612f60565b92915050565b600081359050611d0d81612f77565b92915050565b600081359050611d2281612f8e565b92915050565b600081519050611d3781612f8e565b92915050565b600082601f830112611d4e57600080fd5b8135611d5e848260208601611c6d565b91505092915050565b600082601f830112611d7857600080fd5b8135611d88848260208601611cab565b91505092915050565b600081359050611da081612fa5565b92915050565b600060208284031215611db857600080fd5b6000611dc684828501611ce9565b91505092915050565b60008060408385031215611de257600080fd5b6000611df085828601611ce9565b9250506020611e0185828601611ce9565b9150509250929050565b600080600060608486031215611e2057600080fd5b6000611e2e86828701611ce9565b9350506020611e3f86828701611ce9565b9250506040611e5086828701611d91565b9150509250925092565b60008060008060808587031215611e7057600080fd5b6000611e7e87828801611ce9565b9450506020611e8f87828801611ce9565b9350506040611ea087828801611d91565b925050606085013567ffffffffffffffff811115611ebd57600080fd5b611ec987828801611d3d565b91505092959194509250565b60008060408385031215611ee857600080fd5b6000611ef685828601611ce9565b9250506020611f0785828601611cfe565b9150509250929050565b60008060408385031215611f2457600080fd5b6000611f3285828601611ce9565b925050602083013567ffffffffffffffff811115611f4f57600080fd5b611f5b85828601611d67565b9150509250929050565b60008060408385031215611f7857600080fd5b6000611f8685828601611ce9565b9250506020611f9785828601611d91565b9150509250929050565b600060208284031215611fb357600080fd5b6000611fc184828501611d13565b91505092915050565b600060208284031215611fdc57600080fd5b6000611fea84828501611d28565b91505092915050565b60006020828403121561200557600080fd5b600061201384828501611d91565b91505092915050565b6120258161280a565b82525050565b6120348161281c565b82525050565b60006120458261270c565b61204f8185612722565b935061205f81856020860161288d565b61206881612a59565b840191505092915050565b600061207e82612717565b6120888185612733565b935061209881856020860161288d565b6120a181612a59565b840191505092915050565b60006120b782612717565b6120c18185612744565b93506120d181856020860161288d565b80840191505092915050565b60006120ea603283612733565b91506120f582612a6a565b604082019050919050565b600061210d602683612733565b915061211882612ab9565b604082019050919050565b6000612130601c83612733565b915061213b82612b08565b602082019050919050565b6000612153602483612733565b915061215e82612b31565b604082019050919050565b6000612176601983612733565b915061218182612b80565b602082019050919050565b6000612199602c83612733565b91506121a482612ba9565b604082019050919050565b60006121bc603883612733565b91506121c782612bf8565b604082019050919050565b60006121df602a83612733565b91506121ea82612c47565b604082019050919050565b6000612202602983612733565b915061220d82612c96565b604082019050919050565b6000612225602e83612733565b915061223082612ce5565b604082019050919050565b6000612248602083612733565b915061225382612d34565b602082019050919050565b600061226b603183612733565b915061227682612d5d565b604082019050919050565b600061228e602c83612733565b915061229982612dac565b604082019050919050565b60006122b1602083612733565b91506122bc82612dfb565b602082019050919050565b60006122d4602983612733565b91506122df82612e24565b604082019050919050565b60006122f7602f83612733565b915061230282612e73565b604082019050919050565b600061231a602183612733565b915061232582612ec2565b604082019050919050565b600061233d603183612733565b915061234882612f11565b604082019050919050565b61235c81612874565b82525050565b600061236e82856120ac565b915061237a82846120ac565b91508190509392505050565b600060208201905061239b600083018461201c565b92915050565b60006080820190506123b6600083018761201c565b6123c3602083018661201c565b6123d06040830185612353565b81810360608301526123e2818461203a565b905095945050505050565b6000602082019050612402600083018461202b565b92915050565b600060208201905081810360008301526124228184612073565b905092915050565b60006020820190508181036000830152612443816120dd565b9050919050565b6000602082019050818103600083015261246381612100565b9050919050565b6000602082019050818103600083015261248381612123565b9050919050565b600060208201905081810360008301526124a381612146565b9050919050565b600060208201905081810360008301526124c381612169565b9050919050565b600060208201905081810360008301526124e38161218c565b9050919050565b60006020820190508181036000830152612503816121af565b9050919050565b60006020820190508181036000830152612523816121d2565b9050919050565b60006020820190508181036000830152612543816121f5565b9050919050565b6000602082019050818103600083015261256381612218565b9050919050565b600060208201905081810360008301526125838161223b565b9050919050565b600060208201905081810360008301526125a38161225e565b9050919050565b600060208201905081810360008301526125c381612281565b9050919050565b600060208201905081810360008301526125e3816122a4565b9050919050565b60006020820190508181036000830152612603816122c7565b9050919050565b60006020820190508181036000830152612623816122ea565b9050919050565b600060208201905081810360008301526126438161230d565b9050919050565b6000602082019050818103600083015261266381612330565b9050919050565b600060208201905061267f6000830184612353565b92915050565b600061268f6126a0565b905061269b82826128f2565b919050565b6000604051905090565b600067ffffffffffffffff8211156126c5576126c4612a2a565b5b6126ce82612a59565b9050602081019050919050565b600067ffffffffffffffff8211156126f6576126f5612a2a565b5b6126ff82612a59565b9050602081019050919050565b600081519050919050565b600081519050919050565b600082825260208201905092915050565b600082825260208201905092915050565b600081905092915050565b600061275a82612874565b915061276583612874565b9250827fffffffffffffffffffffffffffffffffffffffffffffffffffffffffffffffff0382111561279a5761279961299d565b5b828201905092915050565b60006127b082612874565b91506127bb83612874565b9250826127cb576127ca6129cc565b5b828204905092915050565b60006127e182612874565b91506127ec83612874565b9250828210156127ff576127fe61299d565b5b828203905092915050565b600061281582612854565b9050919050565b60008115159050919050565b60007fffffffff0000000000000000000000000000000000000000000000000000000082169050919050565b600073ffffffffffffffffffffffffffffffffffffffff82169050919050565b6000819050919050565b82818337600083830152505050565b60005b838110156128ab578082015181840152602081019050612890565b838111156128ba576000848401525b50505050565b600060028204905060018216806128d857607f821691505b602082108114156128ec576128eb6129fb565b5b50919050565b6128fb82612a59565b810181811067ffffffffffffffff8211171561291a57612919612a2a565b5b80604052505050565b600061292e82612874565b91507fffffffffffffffffffffffffffffffffffffffffffffffffffffffffffffffff8214156129615761296061299d565b5b600182019050919050565b600061297782612874565b915061298283612874565b925082612992576129916129cc565b5b828206905092915050565b7f4e487b7100000000000000000000000000000000000000000000000000000000600052601160045260246000fd5b7f4e487b7100000000000000000000000000000000000000000000000000000000600052601260045260246000fd5b7f4e487b7100000000000000000000000000000000000000000000000000000000600052602260045260246000fd5b7f4e487b7100000000000000000000000000000000000000000000000000000000600052604160045260246000fd5b6000601f19601f8301169050919050565b7f4552433732313a207472616e7366657220746f206e6f6e20455243373231526560008201527f63656976657220696d706c656d656e7465720000000000000000000000000000602082015250565b7f4f776e61626c653a206e6577206f776e657220697320746865207a65726f206160008201527f6464726573730000000000000000000000000000000000000000000000000000602082015250565b7f4552433732313a20746f6b656e20616c7265616479206d696e74656400000000600082015250565b7f4552433732313a207472616e7366657220746f20746865207a65726f2061646460008201527f7265737300000000000000000000000000000000000000000000000000000000602082015250565b7f4552433732313a20617070726f766520746f2063616c6c657200000000000000600082015250565b7f4552433732313a206f70657261746f7220717565727920666f72206e6f6e657860008201527f697374656e7420746f6b656e0000000000000000000000000000000000000000602082015250565b7f4552433732313a20617070726f76652063616c6c6572206973206e6f74206f7760008201527f6e6572206e6f7220617070726f76656420666f7220616c6c0000000000000000602082015250565b7f4552433732313a2062616c616e636520717565727920666f7220746865207a6560008201527f726f206164647265737300000000000000000000000000000000000000000000602082015250565b7f4552433732313a206f776e657220717565727920666f72206e6f6e657869737460008201527f656e7420746f6b656e0000000000000000000000000000000000000000000000602082015250565b7f45524337323155524953746f726167653a2055524920736574206f66206e6f6e60008201527f6578697374656e7420746f6b656e000000000000000000000000000000000000602082015250565b7f4552433732313a206d696e7420746f20746865207a65726f2061646472657373600082015250565b7f45524337323155524953746f726167653a2055524920717565727920666f722060008201527f6e6f6e6578697374656e7420746f6b656e000000000000000000000000000000602082015250565b7f4552433732313a20617070726f76656420717565727920666f72206e6f6e657860008201527f697374656e7420746f6b656e0000000000000000000000000000000000000000602082015250565b7f4f776e61626c653a2063616c6c6572206973206e6f7420746865206f776e6572600082015250565b7f4552433732313a207472616e73666572206f6620746f6b656e2074686174206960008201527f73206e6f74206f776e0000000000000000000000000000000000000000000000602082015250565b7f4552433732314d657461646174613a2055524920717565727920666f72206e6f60008201527f6e6578697374656e7420746f6b656e0000000000000000000000000000000000602082015250565b7f4552433732313a20617070726f76616c20746f2063757272656e74206f776e6560008201527f7200000000000000000000000000000000000000000000000000000000000000602082015250565b7f4552433732313a207472616e736665722063616c6c6572206973206e6f74206f60008201527f776e6572206e6f7220617070726f766564000000000000000000000000000000602082015250565b612f698161280a565b8114612f7457600080fd5b50565b612f808161281c565b8114612f8b57600080fd5b50565b612f9781612828565b8114612fa257600080fd5b50565b612fae81612874565b8114612fb957600080fd5b5056fea2646970667358221220881375dedb308bb5655b757d2b34d6964f1fb8f22fef54fcc71d0d5160942f3164736f6c63430008040033",
  "linkReferences": {},
  "deployedLinkReferences": {}
}